:020000040800F2
:1000000030040020450100089D0500089F050008F8
:10001000A3050008A7050008AB05000800000000C4
:10002000000000000000000000000000AF05000814
:10003000B105000800000000B3050008B505000880
:100040005F0100085F0100085F0100085F01000810
:100050005F0100085F0100085F0100085F01000800
:100060005F0100085F0100085F0100085F010008F0
:100070005F0100085F0100085F0100085F010008E0
:100080005F0100085F0100085F0100085F010008D0
:100090005F0100085F0100085F0100085F010008C0
:1000A0005F0100085F0100085F0100085F010008B0
:1000B0005F0100085F0100085F0100085F010008A0
:1000C0005F0100085F0100085F0100085F01000890
:1000D0005F0100085F0100085F0100085F01000880
:1000E0005F0100085F0100085F0100085F01000870
:1000F0005F0100085F0100085F0100085F01000860
:100100005F0100085F0100085F0100085F0100084F
:100110005F0100085F0100085F0100085F0100083F
:100120005F0100085F0100085F0100085F0100082F
:10013000DFF80CD001F04AFA0048004769010008D6
:10014000300400200648804706480047FEE7FEE7E7
:10015000FEE7FEE7FEE7FEE7FEE7FEE7FEE7FEE777
:10016000CB1400083101000800F0E5FA00F06CFB48
:100170007E4800F092FBEFE07C4800F08EFB4FF4ED
:10018000FA6000F0CBFA00F05FFB79A201210020B9
:1001900000F0AFFC7BA20121022000F0AAFC7EA2AD
:1001A0000121042000F0A5FC80A20121062000F01E
:1001B000A0FC4FF4FA6000F0B1FA4FF4FA6000F0DE
:1001C000ADFA4FF4FA6000F0A9FA00F03DFB7CA212
:1001D0001021002000F08DFC7CA20121022000F003
:1001E00088FC7FA20121042000F083FC81A2012170
:1001F000062000F07EFC4FF4FA6000F08FFA4FF416
:10020000FA6000F08BFA4FF4FA6000F087FA2E20C3
:1002100000F016FA292000F013FA002000F010FA7E
:10022000002000F00DFA002000F00AFA072000F08C
:1002300007FA012000F004FA2F2000F001FA00F084
:1002400003FB71A20121002000F053FC73A20121E5
:10025000022000F04EFC76A20121042000F049FCAF
:1002600078A20121062000F044FC7A4A6121062090
:1002700000F032FB784A7121062000F02DFB4FF48C
:10028000FA6000F04BFA4FF4FA6000F047FA4FF4CE
:10029000FA6000F043FA00F0D7FA70A201210020C2
:1002A00000F027FC72A20121032000F0D8FC76A206
:1002B0000121042000F0D3FC79A20121052000F0E7
:1002C000CEFC7DA20121062000F0C9FC80A2012104
:1002D000072000F0C4FC83A20121082000F0BFFC2D
:1002E0004FF4FA6000F01AFA84A20121002000F015
:1002F00000FC87A20121022000F0FBFB89A2012162
:10030000042000F0F6FB8CA20121062000F0F1FB96
:100310004FF4FA6000F002FA8CA20121002000F0F4
:10032000E8FB8FA20121022000F0E3FB91A2012152
:10033000042000F0DEFB94A20121062000F0D9FB8E
:100340004FF4FA6000F0EAF94FF4FA6000F0E6F9D1
:100350004FF4FA6000F0E2F90EE701B502E0009810
:10036000401E009000980028F9D108BD0E16000824
:1003700031323836342CB4F8D6D0CEC4D7D6BFE21A
:10038000000000003136583136BCF2CCE5BABAD79D
:10039000D6BFE22C00000000BBF238583136B5E37E
:1003A000D5F341534349492C00000000BBF23558B6
:1003B00037B5E3D5F34153434949C2EB0000000090
:1003C000D6D0BEB0D4B0B5E7D7D30000D6F7D2AA06
:1003D000C9FAB2FA4F4C4544C4A3BFE9000000007B
:1003E000B9CBBFCDD6C1C9CFD5E6B3CFB7FECEF11D
:1003F00000000000B3CFD0C5D3EBD6CAC1BFB5DA79
:10040000D2BBA3A100000000474232333132BCF21C
:10041000CCE5D7D6BFE2BCB000000000D3D0CDBC45
:10042000D0CDB9A6C4DCA3ACBFC9D7D400000000AE
:10043000B1E0B4F3D7D6BBF2CDBCCFF1BBF2C9FA71
:1004400000000000C6A7D7D6A3ACC0FDC8E7A3BA7A
:10045000000000000E1A00082E1A00083C2140235C
:1004600024255E262A28295F2D2B5D2F0000000001
:100470003C21402324255E262A28295F2D2B5D2F31
:100480003B2E2C3F5B000000585920656C6563745F
:10049000726F6E69637320436F2E2C202000000062
:1004A0004C74642E2065737461626C697368656452
:1004B00020617420200000007965617220323031A3
:1004C000302E466F637573204F4C4544200000006A
:1004D0004D6F62696C653A313332363535383539AE
:1004E0003735000054656C3A303735352D333239A5
:1004F000313037313520202000000000B0A1B0A2FB
:10050000B0A3B0A4B0A5B0A6B0A7B0A800000000EA
:10051000B0A9B0AAB0ABB0ACB0ADB0AEB0AFB0B0F7
:1005200000000000B0B1B0B2B0B3B0B4B0B5B0B676
:10053000B0B7B0B800000000B0B9B0BAB0BBB0BC42
:10054000B0BDB0BEB0BFB0C000000000F7DFF7E044
:10055000F7E1F7E2F7E3F7E4F7E5F7E6000000007C
:10056000F7E7F7E8F7E9F7EAF7EBF7ECF7EDF7EE7F
:1005700000000000F7EFF7F0F7F1F7F2F7F3F7F408
:10058000F7F5F7F600000000F7F7F7F8F7F9F7FAD4
:10059000F7FBF7FCF7FDF7FE00000000704700BF17
:1005A000FEE700BFFEE700BFFEE700BFFEE77047C3
:1005B000704770477047000008B50121042000F023
:1005C00003FD41F63070ADF8000010208DF80300F7
:1005D00003208DF802006946F94800F0B9FD41F6A4
:1005E0003071F74800F063FE1020ADF800008DF880
:1005F00003006946F24800F0ABFD1021F04800F01E
:1006000056FE08BD08B51020ADF8000003208DF897
:10061000020028208DF803006946E94800F098FDA3
:1006200008BD08B51020ADF8000014208DF80300B7
:1006300003208DF802006946E14800F089FD08BDFD
:1006400070B504464FF40061DD4800F030FE4FF411
:100650008051DB4800F02BFE00251BE04FF4807139
:10066000D74800F024FE04F0800028B14FF4007158
:10067000D34800F01AFE04E04FF40071D04800F0B7
:1006800016FE4FF48071CE4800F00FFE00BF6400EC
:10069000681CC5B2082DE1DB4FF40061C84800F0CA
:1006A00004FE4FF48051C64800F0FFFD70BD70B5E8
:1006B00004464FF40061C24800F0F7FD4FF480514A
:1006C000BF4800F0F4FD00251BE04FF48071BC48EA
:1006D00000F0EDFD04F0800028B14FF40071B8483F
:1006E00000F0E3FD04E04FF40071B54800F0DFFDD9
:1006F0004FF48071B24800F0D8FD00BF6400681C60
:10070000C5B2082DE1DB4FF40061AD4800F0CDFD2E
:100710004FF48051AA4800F0C8FD70BD002107E0E9
:10072000002200E0521C41F27C539A42FADB491C41
:100730008142F5DB704710B54FF4C870FFF7EEFF4C
:10074000FFF73AFF4FF480619D4800F0B0FD4FF491
:10075000C870FFF7E3FF4FF48061994800F0A5FDF2
:100760004FF48051964800F0A2FD2021944800F0FB
:100770009CFDAE20FFF764FF0020FFF761FF102013
:10078000FFF75EFF4020FFF75BFF8120FFF758FF78
:10079000CF20FFF755FFA120FFF752FFC820FFF73A
:1007A0004FFFA620FFF74CFFA820FFF749FF3F208F
:1007B000FFF746FFD320FFF743FF0020FFF740FF7E
:1007C000D520FFF73DFF8020FFF73AFFD920FFF744
:1007D00037FFF120FFF734FFDA20FFF731FF122057
:1007E000FFF72EFFDB20FFF72BFF4020FFF728FF4E
:1007F0002020FFF725FF0220FFF722FF8D20FFF7C3
:100800001FFF1420FFF71CFFA420FFF719FFA620ED
:10081000FFF716FFAF20FFF713FF4FF48051684832
:1008200000F043FD10BD70B504460D4605F1B00063
:10083000FFF706FF102141EA1410FFF701FF04F053
:100840000F00FFF7FDFE70BD70B54FF480515C489E
:1008500000F02DFD20215A4800F027FD002414E06F
:1008600004F1B000FFF7ECFE0020FFF7E9FE1020D6
:10087000FFF7E6FE002504E00020FFF718FF681CE4
:10088000C5B2802DF8DB601CC4B2082CE8DB4FF445
:1008900080514B4800F009FD70BD70B504464FF41F
:1008A0008051474800F003FD00250DE0E9B200202B
:1008B000FFF7B9FF002604E02078FFF7F8FE641C7C
:1008C000761C802EF8D36D1C082DEFD34FF4805189
:1008D0003B4800F0EAFC70BD2DE9F04104460E46AD
:1008E00015464FF48051364800F0E1FC2021344891
:1008F00000F0DBFC4FF002080FE0E1B2F0B2FFF7CE
:1009000092FF002704E02878FFF7D1FE6D1C7F1CC2
:10091000102FF8D3641CA8F10108B8F1000FECD136
:100920004FF48051264800F0C0FCBDE8F0812DE96D
:10093000F04104460E4615464FF48051204800F021
:10094000B6FC4FF002080FE0E1B23046FFF76BFF54
:10095000002704E02878FFF7AAFE6D1C7F1C082FF3
:10096000F8D3641CA8F10108B8F1000FECD14FF4E2
:100970008051134800F099FCBDE8F0812DE9F04763
:1009800006460C46154606F1AF0000F0FF084FF48E
:1009900080510B4800F08BFC04F00F00401E00F06B
:1009A000FF09102000EB141A4046FFF749FE50469D
:1009B000FFF746FE4846FFF743FE002707E000002A
:1009C000000801402878FFF772FE6D1C7F1C062F7F
:1009D000F8D34FF48051C14800F067FCBDE8F087C0
:1009E00070B5044600251FE004F0800030B14FF4DC
:1009F0000071BA4800F059FC00BF05E04FF40071E7
:100A0000B64800F054FC00BF6006040E4FF480713D
:100A1000B24800F04CFC00BF4FF48071AF4800F0CA
:100A200044FC00BF681CC5B2082DDDDB70BD70B58D
:100A300000244FF48071A94800F037FC00BFFFF795
:100A4000E1FD00251EE01021A44800F02EFC00BFAF
:100A50004FF48071A14800F02AFC00BF6006040E2C
:100A600010219E4800F007FC18B1601CC4B200BF02
:100A700001E0E4B200BF4FF48071984800F015FC2B
:100A8000681CC5B2082DDEDBFFF7CBFD204670BD2C
:100A90002DE9F04780460D4616461F46DDF82090AA
:100AA00020218E4800F003FC4FF480518B4800F069
:100AB000FCFB4FF48071894800F0F9FB0320FFF73D
:100AC0008FFF4046FFF78CFF2846FFF789FF30462F
:100AD000FFF786FF002404E0FFF7A9FF3855601CEC
:100AE000C4B24C45F8DB20217C4800F0DEFBBDE8B9
:100AF000F0872DE9F0478EB082460E461546002459
:100B0000A6E0285DB02836DB285DF72833DC601CC2
:100B1000285CA1282FDB285DB0385E21484370494E
:100B20000860601C285C00F2AD20096808446C492C
:100B30000860084600684001086008460068C0F385
:100B4000074708460088C0F30728084690F8009039
:100B5000202006AB4A46414600903846FFF798FFF2
:100B600006AA31465046FFF7B7FEA01CC4B206F1F4
:100B70001000C6B26CE0285DA12835DB285DA328F3
:100B800032DC601C285CA1282EDB285DA1385E21A8
:100B9000484353490860601C285CA1380968084430
:100BA0004F49086008460068400108600846006830
:100BB000C0F3074708460088C0F30728084690F8A6
:100BC0000090202006AB4A46414600903846FFF789
:100BD0005FFF06AA31465046FFF77EFEA01CC4B256
:100BE00006F11000C6B233E0285D20282EDB285D18
:100BF0007E282BDC285D20383949086008460068CB
:100C00000001086008460068364908443449086015
:100C100008460068C0F3074708460088C0F3072865
:100C2000084690F80090102002AB4A4641460090DA
:100C30003846FFF72DFF02AA31465046FFF777FEF0
:100C4000601CC4B206F10800C6B201E0601CC4B268
:100C5000285D00283FF755AF0EB0BDE8F0872DE9BD
:100C6000FE4F82460E461546002432E0285D2028BD
:100C70002DDB285D7E282ADC285D20381849086095
:100C800008460068C0000860084600681649084425
:100C90001349086008460068C0F307470846008803
:100CA000C0F30728084690F80090082001AB4A4698
:100CB000414600903846FFF7EBFE01AA3146504608
:100CC000FFF75CFE601CC4B2B01DC6B201E0601C40
:100CD000C4B2285D0028C9DCBDE8FE8F00080140D1
:100CE0000000002080CF0300C0BF0300DF48006881
:100CF00040F00100DD49086008464068DC490840D2
:100D0000DA49486008460068DA490840D74908606F
:100D10000846006820F4802008600846406820F4F7
:100D2000FE0048604FF41F0088607047CF49096893
:100D300021F48031CD4A11601146096821F48021E7
:100D40001160B0F5803F03D0B0F5802F0ED106E0E2
:100D5000C649096841F48031C44A116007E0C349BB
:100D6000096841F4A021C14A116000E000BF00BF42
:100D7000704710B501460022002300204A11012AC5
:100D800002D1BA4C236806E0022A02D1B74C236A8A
:100D900001E0B64C636A01F01F02012494401C403C
:100DA0000CB1012000E0002010BD38B500200090FB
:100DB0000024002500BF3120FFF7DBFF0546009827
:100DC000401C00900098B0F5A06F01D0002DF2D02B
:100DD0003120FFF7CEFF08B1012400E000242046B7
:100DE00038BD01460020A14A106820F0F80040EA12
:100DF000C10010607047A04908607047024600209B
:100E00009A4B586820F47C1042EA01031843974B30
:100E10005860704798490866704701460020934A19
:100E2000506820F003000843506070478F484068C6
:100E300000F00C007047014600208C4A506820F0FA
:100E4000F00008435060704701460020874A506810
:100E500020F4E06008435060704701460020834A58
:100E6000506820F4605040EAC1005060704729B1DA
:100E70007E4A527A02437D4B5A7204E07B4A527A90
:100E800082437A4B5A7270477B49D8310860704769
:100E900001460020754A506820F4404008435060E5
:100EA00070470021714A20321170704A82F8201078
:100EB000012802D004280AD104E001216B4A203223
:100EC000117005E00521694A2032117000E000BF71
:100ED00000BF70476949086070476449096A014367
:100EE000624A11627047654944390860704730B5FD
:100EF00000210022002400235C4D6D6805F00C01E8
:100F000021B1042905D0082923D105E05C4D0560F5
:100F100022E05B4D05601FE0544D6D6805F47012D2
:100F2000524D6D6805F48034022505EB92421CB9E0
:100F3000544D554305600BE04C4D6D6805F400358C
:100F40001DB1504D5543056002E04D4D55430560C0
:100F500002E04B4D056000BF00BF444D6D6805F0D9
:100F6000F0010909484D6B5C0568DD4045603F4D67
:100F70006D6805F4E061090A434D6B5C4568DD402E
:100F800085603A4D6D6805F46051C90A3E4D6B5C51
:100F90004568DD40C560354D6D6805F44041890BFD
:100FA0003A4D6B5CC568B5FBF3F5056130BD29B101
:100FB0002E4A526902432D4B5A6104E02B4A526972
:100FC00082432A4B5A61704729B1284A92690243E9
:100FD000264B9A6104E0254A92698243234B9A6129
:100FE000704729B1214AD2690243204BDA6104E0FB
:100FF0001E4AD26982431D4BDA61704729B11B4AF0
:10100000D2680243194BDA6004E0184AD26882437E
:10101000164BDA60704729B1144A12690243134B28
:101020001A6104E0114A12698243104B1A61704739
:1010300012494039086070470F49C86470470B492E
:10104000C87170470948406A40F08070074948629B
:10105000704701460020054A92680A400AB1012003
:1010600000E000207047014988727047001002407C
:101070000000FFF8FFFFF6FE0000424280044242FB
:1010800000127A0000093D00040000201400002036
:1010900010B50446CC48844208D101210420FFF752
:1010A000ADFF00210420FFF7A9FF46E0C7488442B6
:1010B00008D101210820FFF7A1FF00210820FFF738
:1010C0009DFF3AE0C248844208D101211020FFF779
:1010D00095FF00211020FFF791FF2EE0BD488442CC
:1010E00008D101212020FFF789FF00212020FFF7F0
:1010F00085FF22E0B848844208D101214020FFF753
:101100007DFF00214020FFF779FF16E0B3488442BD
:1011100008D101218020FFF771FF00218020FFF717
:101120006DFF0AE0AE48844207D101218015FFF728
:1011300065FF0021A015FFF761FF10BD10B501216B
:101140000846FFF75BFF00210120FFF757FF10BDA6
:101150002DE9F0410246002500260020002300244E
:10116000002791F803C00CF00F0591F803C00CF0B4
:10117000100CBCF1000F03D091F802C04CEA050539
:1011800091F800C0BCF1000F31D0146800202BE0B2
:101190004FF0010C0CFA00F3B1F800C00CEA0306A2
:1011A0009E4220D183004FF00F0C0CFA03F7BC4392
:1011B00005FA03FC4CEA040491F803C0BCF1280FC3
:1011C00006D14FF0010C0CFA00FCC2F814C00AE082
:1011D00091F803C0BCF1480F05D14FF0010C0CFA97
:1011E00000FCC2F810C0401C0828D1D31460B1F82C
:1011F00000C0BCF1FF0F34DD546800202EE000F188
:10120000080C4FF0010808FA0CF3B1F800C00CEA22
:1012100003069E4221D183004FF00F0C0CFA03F716
:10122000BC4305FA03FC4CEA040491F803C0BCF18A
:10123000280F05D100F1080C08FA0CF8C2F8148048
:1012400091F803C0BCF1480F07D100F1080C4FF032
:10125000010808FA0CF8C2F81080401C0828CED308
:101260005460BDE8F0814FF6FF710180022181706A
:101270000421C17070470246002093680B400BB1F7
:10128000012000E0002070470146886880B2704766
:1012900002460020D3680B400BB1012000E0002083
:1012A00070470146C86880B270470161704741616C
:1012B00070470AB1016100E041617047C160704749
:1012C0004FF480320A43826181618261826982695E
:1012D000704702460020434B18684FF68073184051
:1012E00040EA021008433F4B186070473E49C8610E
:1012F0007047F0B50A46002300240021002500F0C5
:101300000046B6F1004F02D1364EF16901E0354E8C
:101310007168C0F3034583B200F44016B6F5401F70
:1013200008D121F070612F4E766826F070662D4F3F
:101330007E6012E000F48016B6F5801F06D1032609
:1013400006FA05F4A14341F0706106E0460D36014E
:1013500003FA06F6B14341F0706122B1460D360141
:1013600003FA06F6314300F00046B6F1004F02D111
:101370001C4EF16101E01B4E7160F0BD30B50022E2
:101380008B071C0F0F2303FA04F2164B08338C1043
:1013900053F824309343134C08348D1044F825300F
:1013A00023468C1053F824308C07240F00FA04F4E1
:1013B00023430C4C08348D1044F8253030BD0A49C5
:1013C000DC3108607047000000080140000C01405B
:1013D000001001400014014000180140001C0140B1
:1013E0000020014000000140000020420CB5002018
:1013F000019000906C48006840F480306A490860B1
:1014000000BF6948006800F4003000900198401C5B
:101410000190009818B90198B0F5A06FF1D1624819
:10142000006800F4003010B10120009001E00020BD
:1014300000900098012843D15C48006840F01000FB
:101440005A4908600846006820F003000860084612
:10145000006840F002000860534840685249486004
:101460000846406848600846406840F4806048602C
:101470000846406820F47C1048600846406840F404
:10148000E81048600846006840F08070086000BFBF
:101490004548006800F000700028F9D042484068D4
:1014A00020F00300404948600846406840F00200D0
:1014B000486000BF3C48406800F00C000828F9D1A3
:1014C0000CBD10B5FFF792FF10BD10B5364800688F
:1014D00040F001003449086008464068344908403B
:1014E0003149486008460068324908402E49086082
:1014F0000846006820F4802008600846406820F410
:10150000FE0048604FF41F008860FFF7DAFF4FF0DD
:1015100000602949086010BD10B50021002000229C
:10152000214B5B6803F00C0121B1042906D0082986
:1015300028D107E0214B224C236027E01F4B204C91
:10154000236023E0184B5B6803F47010164B5B6854
:1015500003F48032022303EB904022B9194B43433A
:10156000174C23600DE0104B5B6803F4003323B18C
:10157000144B4343124C236003E0104B4343104C85
:10158000236003E00D4B0E4C236000BF00BF064BF1
:101590005B68C3F303130C4CE15C094B1B68CB4045
:1015A000074C236010BD00000010024000200240E4
:1015B0000000FFF8FFFFF6FE08ED00E000127A00E1
:1015C0001800002000093D001C000020064C074DBB
:1015D00006E0E06840F0010394E807009847103403
:1015E000AC42F6D3FEF7A8FD501A0008701A0008A6
:1015F00002E008C8121F08C1002AFAD170477047DC
:10160000002001E001C1121F002AFBD17047000039
:1016100000000000000000000000000000000000CA
:10162000008080C0C0C0C0E060E0E0E0E0606060DA
:1016300060606060E0E0E0E0C0C0C0C080800000AA
:10164000000000000000000000000000000000009A
:10165000000000000000000000000000000000008A
:10166000000000000000000000000000000000007A
:10167000000000000000000000000000000000006A
:10168000000000000000000000000000000000005A
:1016900000000000000080C0E07038181C0C0E072D
:1016A00003030181E0781C0E070301000000000025
:1016B0000000000000000103070E1C79E18303070E
:1016C0000E0C1C183870E0C0800000000000000004
:1016D0000000000000000000008080C0C0C0C0E02A
:1016E000E0E0E0E0E0E0E0E0E0E0E0E0E0E0E0E0FA
:1016F000E0E0E0E0E0E0E0E0E0E0E0E0E0E0E0E0EA
:10170000E0C0C0C0C0C080000000000000000000B9
:101710000080F0781E07038180C0C0C0E060606078
:1017200070F0FE3F191818181818181818181818FB
:10173000181818181818181818181838313FFEF00B
:101740006060E0C0C0C0808103071E78F0800000A8
:10175000000000000000C0FCFF7F070F1F3D7971F3
:10176000F0E0C08000000000000000000000000069
:10177000000000000000000000000000008080C0A9
:10178000E0F071793D1F0FFFFEFC000000000080BB
:10179000FEFFF91C0E07030301010000000000001A
:1017A000FFFF00000000000000000000000000003B
:1017B000000000000000000000000000000000FF2A
:1017C000FF0000000001010303070E1CF9FFFE00EB
:1017D000000000000000FFFFFF000000000000000C
:1017E000000103070F0E9EFCF8F0E0C0C08000006F
:1017F00000000080C0C0E0F0F8F8FC9E0F07030373
:1018000001000000000000FFFFFF000000000000DA
:101810003FFFDF3870E0C0C08080000000000000A3
:10182000FFFF0000000000000000000000000000BA
:10183000000000000000000000000000000000FFA9
:10184000FF000000008080C0C0E07038DFFF3F0074
:101850000000000000007FFFFF000000000080C0CB
:10186000E0F0783C1E0F07030100010103070F1E83
:101870001E0E0F0703010100010103070F1E3C7834
:10188000F0E0C080000000FFFFFF0000000000004B
:101890000000070F3C70E0C1810303030706060642
:1018A0000E0F7FFC98181818181818181818181800
:1018B00018181818181818181818180C8CFC7F0FFE
:1018C00006060703030381C1E0703C0F0700000018
:1018D000000000000000000F1F3F7CFCFEEFE7E36C
:1018E000E1E0E0E0E0E0E0E0E0E0E0E0E0E0E0E0F7
:1018F000E0E0E0E0E0E0E0E0E0E0E0E0E0E0E0E0E8
:10190000E0E1E3E7EFFE7C3F1F0F00000000000076
:10191000000000000000000103070E0C1C183870C6
:1019200060E0C0C1879EB8F0E0C080000000000009
:1019300000000000000080C0E0F0B8DEC7E1607089
:1019400038181C0C0E070301000000000000000006
:101950000000000000000000000000000000000087
:101960000000000000000000000000000000000077
:101970000000000000000000000000000000000067
:101980000000000000000000000000000000000057
:101990000000000000000000000000000000000047
:1019A0000000000101010103030303030707070708
:1019B00007070707070303030101010100000000F7
:1019C0000000000000000000000000000000000017
:1019D0000000000000000000000000000000000007
:1019E00000000000000000000000000000000000F7
:1019F00000000000000000000000000000000000E7
:101A0000000000000000000000000000000000FED8
:101A10008242A29E8A82868AB26202FE0000007F13
:101A200040407F40404040407F40407F00008080F9
:101A300080BFA5A5A53FA5A5A5BF808080007F2468
:101A4000243F24247F007F24243F24247F0000009F
:101A5000701A0008000000202C000000F01500089B
:101A60009C1A00082C000020040400000016000846
:101A70000000000000000000010203040102030452
:101A8000060708090204060800A24A040000000034
:0C1A900000000000010203040607080922
:0400000508000131BD
:00000001FF
