:020000040800F2
:10000000E009002045010008590300085B030008CF
:100010005F03000863030008670300080000000096
:100020000000000000000000000000006B0300085A
:100030006D030008000000006F0300087103000852
:100040005F0100085F0100085F0100085F01000810
:100050005F0100085F0100085F0100085F01000800
:100060005F0100085F0100085F0100085F010008F0
:100070005F0100085F0100085F0100085F010008E0
:100080005F0100085F0100085F0100085F010008D0
:100090005F0100085F0100085F0100085F010008C0
:1000A0005F0100085F0100085F0100085F010008B0
:1000B0005F0100085F0100085F0100085F010008A0
:1000C0005F0100085F0100085F0100085F01000890
:1000D0005F0100085F0100085F0100085F01000880
:1000E0005F0100085F0100085F0100085F01000870
:1000F0005F0100085F0100085F0100085F01000860
:100100005F0100085F0100085F0100085F0100084F
:100110005F0100085F0100085F0100085F0100083F
:100120005F0100085F0100085F0100085F0100082F
:10013000DFF80CD001F07CF80048004769010008A6
:10014000E00900200648804706480047FEE7FEE732
:10015000FEE7FEE7FEE7FEE7FEE7FEE7FEE7FEE777
:100160002F1100083101000800F0C3F900F04AFA2D
:10017000664A0021032000F051FB654A1921032043
:1001800000F04CFB634A3221032000F047FB624A37
:100190004B21032000F042FB604A6421032000F061
:1001A0003DFB5F4A5521002000F0BEFA5D4A5D210B
:1001B000002000F0B9FA5C4A6521002000F0B4FA92
:1001C0005A4A6D21002000F0AFFA4FF47A6000F037
:1001D00083F900F017FA564800F03DFA514A16210B
:1001E000002000F0A1FA534A1E21002000F09CFAE2
:1001F000504A2621002000F097FA4F4A5021002053
:1002000000F092FA4D4A5821002000F08DFA4C4A35
:100210006021002000F088FA4A4A5E21052000F0A3
:1002200083FA494A6621052000F07EFA474A702188
:10023000052000F079FA444A7821052000F074FA8C
:100240005AE0434800780A2811DA3221032000F0EE
:1002500057FB1E21032000F053FB3E483C49097820
:1002600000EB81124621032000F088FA3BE0384879
:1002700000780A2820DB3648007864281CDA3448E5
:1002800000780A2190FBF1F0324901EB80142246FC
:100290003221032000F072FA2D4800780A2190FBE9
:1002A000F1F201FB12002B4901EB8014224646219A
:1002B000032000F063FA16E025480078642812D184
:1002C000244A40321E21032000F058FA214A3221EC
:1002D000032000F053FA1F4A4621032000F04EFA93
:1002E00000201B4908701A480078401C1849087003
:1002F0004FF4FA6000F0F0F8A3E701B502E00098CF
:10030000401E009000980028F9D108BD0000002090
:100310008000002000010020800100200002002059
:10032000D0020020F0020020200300201003002053
:10033000C8120008E002002090020020B002002055
:100340000003002080020020C0020020A002002044
:10035000B005002030030020704700BFFEE700BF5B
:10036000FEE700BFFEE700BFFEE77047704770473B
:100370007047000008B50121042000F057FC41F649
:100380003070ADF8000010208DF8030003208DF8C8
:1003900002006946F84800F00DFD41F63071F6485C
:1003A00000F0B7FD1020ADF800008DF8030069469D
:1003B000F14800F0FFFC1021EF4800F0AAFD08BD55
:1003C00008B51020ADF8000003208DF802002820A9
:1003D0008DF803006946E84800F0ECFC08BD08B55C
:1003E0001020ADF8000014208DF8030003208DF8D4
:1003F00002006946E04800F0DDFC08BD70B5044627
:100400004FF40061DC4800F084FD4FF48051DA487D
:1004100000F07FFD00251BE04FF48071D64800F00E
:1004200078FD04F0800028B14FF40071D24800F04C
:100430006EFD04E04FF40071CF4800F06AFD4FF408
:100440008071CD4800F063FD00BF6400681CC5B238
:10045000082DE1DB4FF40061C74800F058FD4FF470
:100460008051C54800F053FD70BD70B504464FF48F
:100470000061C14800F04BFD4FF48051BE4800F0D0
:1004800048FD00251BE04FF48071BB4800F041FDA2
:1004900004F0800028B14FF40071B74800F037FD38
:1004A00004E04FF40071B44800F033FD4FF4807164
:1004B000B14800F02CFD00BF6400681CC5B2082DD7
:1004C000E1DB4FF40061AC4800F021FD4FF48051B6
:1004D000A94800F01CFD70BD002107E0002200E0EB
:1004E000521C41F27C539A42FADB491C8142F5DBF3
:1004F000704710B54FF4C870FFF7EEFFFFF73AFFF3
:100500004FF480619C4800F004FD4FF4C870FFF781
:10051000E3FF4FF48061984800F0F9FC4FF48051FC
:10052000954800F0F6FC2021934800F0F0FCAE2046
:10053000FFF764FF0020FFF761FF1020FFF75EFF69
:100540004020FFF75BFF8120FFF758FFCF20FFF728
:1005500055FFA120FFF752FFC820FFF74FFFA6204D
:10056000FFF74CFFA820FFF749FF3F20FFF746FFAA
:10057000D320FFF743FF0020FFF740FFD520FFF710
:100580003DFF8020FFF73AFFD920FFF737FFF1202A
:10059000FFF734FFDA20FFF731FF1220FFF72EFFBD
:1005A000DB20FFF72BFF4020FFF728FF2020FFF77D
:1005B00025FF0220FFF722FF8D20FFF71FFF1420E9
:1005C000FFF71CFFA420FFF719FFA620FFF716FF77
:1005D000AF20FFF713FF4FF48051674800F097FCFE
:1005E00010BD70B504460D4605F1B000FFF706FFDB
:1005F000102141EA1410FFF701FF04F00F00FFF78C
:10060000FDFE70BD70B54FF480515B4800F081FC79
:100610002021594800F07BFC002414E004F1B000D4
:10062000FFF7ECFE0020FFF7E9FE1020FFF7E6FEE3
:10063000002504E00020FFF718FF681CC5B2802DDC
:10064000F8DB601CC4B2082CE8DB4FF480514A4848
:1006500000F05DFC70BD70B504464FF48051464813
:1006600000F057FC00250DE0E9B20020FFF7B9FFCC
:10067000002604E02078FFF7F8FE641C761C802E2C
:10068000F8D36D1C082DEFD34FF480513A4800F099
:100690003EFC70BD70B504464FF48051364800F002
:1006A00038FC00250DE0E9B20020FFF79AFF002694
:1006B00004E02078FFF7D9FE641C761C802EF8D366
:1006C0006D1C082DEFD34FF480512B4800F01FFC18
:1006D00070BD2DE9F04104460E4615464FF4805199
:1006E000254800F016FC2021234800F010FC4FF0B4
:1006F00002080FE0E1B2F0B2FFF773FF002704E059
:100700002878FFF7B2FE6D1C7F1C102FF8D3641CF5
:10071000A8F10108B8F1000FECD14FF48051164850
:1007200000F0F5FBBDE8F0812DE9F04104460E46EE
:1007300015464FF48051104800F0EBFB4FF00208D3
:100740000FE0E1B23046FFF74CFF002704E02878C5
:10075000FFF78BFE6D1C7F1C082FF8D3641CA8F1DB
:100760000108B8F1000FECD14FF48051024800F0BD
:10077000CEFBBDE8F0810000000801402DE9F0410A
:1007800004460E4615464FF48051704800F0C1FBF8
:100790004FF0040810E021463046FFF722FF002703
:1007A00004E02878FFF761FE6D1C7F1C102FF8D342
:1007B000601CC4B2A8F10108B8F1000FEBD14FF4EE
:1007C0008051624800F0A3FBBDE8F0812DE9F041C3
:1007D00004460E4615464FF480515C4800F099FBE4
:1007E0004FF0030810E021463046FFF7FAFE0027DD
:1007F00004E02878FFF739FE6D1C7F1C182FF8D312
:10080000601CC4B2A8F10108B8F1000FEBD14FF49D
:1008100080514E4800F07BFBBDE8F0812DE9F041AE
:1008200004460E4615464FF48051484800F071FBCF
:100830004FF0040810E021463046FFF7D2FE0027B3
:1008400004E02878FFF711FE6D1C7F1C202FF8D3E1
:10085000601CC4B2A8F10108B8F1000FEBD14FF44D
:1008600080513A4800F053FBBDE8F0812DE9F04794
:1008700006460C46154606F1AF0000F0FF084FF49F
:100880008051324800F045FB04F00F00401E00F09C
:10089000FF09102000EB141A4046FFF7AFFD504649
:1008A000FFF7ACFD4846FFF7A9FD002704E02878D4
:1008B000FFF7DBFD6D1C7F1C062FF8D34FF4805132
:1008C000224800F024FBBDE8F0872DE9F0410746FF
:1008D0000C46154600260EE0AA1921463846FFF7B9
:1008E00023FF04F10800C4B2782C01DD0024BF1CF2
:1008F00006F11000C6B2A85D0028EDD1BDE8F08178
:100900002DE9F04104460D464FF000084FF48051A8
:100910000E4800F0FEFA04270EE021462846FFF7B5
:1009200060FE002603E04046FFF79FFD761C102E78
:10093000F9D3601CC4B27F1E002FEED14FF480515A
:10094000024800F0E4FABDE8F08100000008014030
:10095000DF48006840F00100DD4908600846406853
:10096000DC490840DA49486008460068DA4908402E
:10097000D74908600846006820F4802008600846CF
:10098000406820F4FE0048604FF41F008860704704
:10099000CF49096821F48031CD4A116011460968B8
:1009A00021F480211160B0F5803F03D0B0F5802F95
:1009B0000ED106E0C649096841F48031C44A11608D
:1009C00007E0C349096841F4A021C14A116000E071
:1009D00000BF00BF704710B5014600220023002071
:1009E0004A11012A02D1BA4C236806E0022A02D138
:1009F000B74C236A01E0B64C636A01F01F02012480
:100A000094401C400CB1012000E0002010BD38B51E
:100A1000002000900024002500BF3120FFF7DBFFFD
:100A200005460098401C00900098B0F5A06F01D0DA
:100A3000002DF2D03120FFF7CEFF08B1012400E0F5
:100A40000024204638BD01460020A14A106820F04D
:100A5000F80040EAC10010607047A0490860704784
:100A6000024600209A4B586820F47C1042EA0103A9
:100A70001843974B5860704798490866704701467D
:100A80000020934A506820F00300084350607047EC
:100A90008F48406800F00C007047014600208C4AE7
:100AA000506820F0F0000843506070470146002075
:100AB000874A506820F4E060084350607047014660
:100AC0000020834A506820F4605040EAC100506022
:100AD000704729B17E4A527A02437D4B5A7204E034
:100AE0007B4A527A82437A4B5A7270477B49D8319B
:100AF0000860704701460020754A506820F4404065
:100B00000843506070470021714A20321170704ACA
:100B100082F82010012802D004280AD104E0012123
:100B20006B4A2032117005E00521694A20321170AC
:100B300000E000BF00BF7047694908607047644922
:100B4000096A0143624A1162704765494439086085
:100B5000704730B500210022002400235C4D6D68F1
:100B600005F00C0121B1042905D0082923D105E0A5
:100B70005C4D056022E05B4D05601FE0544D6D68E3
:100B800005F47012524D6D6805F48034022505EBB2
:100B900092421CB9544D554305600BE04C4D6D68B5
:100BA00005F400351DB1504D5543056002E04D4D33
:100BB0005543056002E04B4D056000BF00BF444D4A
:100BC0006D6805F0F0010909484D6B5C0568DD4072
:100BD00045603F4D6D6805F4E061090A434D6B5C6B
:100BE0004568DD4085603A4D6D6805F46051C90A7D
:100BF0003E4D6B5C4568DD40C560354D6D6805F464
:100C00004041890B3A4D6B5CC568B5FBF3F5056156
:100C100030BD29B12E4A526902432D4B5A6104E07E
:100C20002B4A526982432A4B5A61704729B1284A9C
:100C300092690243264B9A6104E0254A92698243F5
:100C4000234B9A61704729B1214AD2690243204B54
:100C5000DA6104E01E4AD26982431D4BDA617047B3
:100C600029B11B4AD2680243194BDA6004E0184AE2
:100C7000D2688243164BDA60704729B1144A126970
:100C80000243134B1A6104E0114A12698243104B6C
:100C90001A61704712494039086070470F49C864AB
:100CA00070470B49C87170470948406A40F080702E
:100CB00007494862704701460020054A92680A4089
:100CC0000AB1012000E00020704701498872704796
:100CD000001002400000FFF8FFFFF6FE0000424255
:100CE0008004424200127A0000093D00B105002054
:100CF000C105002010B50446CC48844208D101212A
:100D00000420FFF7ADFF00210420FFF7A9FF46E014
:100D1000C748844208D101210820FFF7A1FF002124
:100D20000820FFF79DFF3AE0C248844208D1012124
:100D30001020FFF795FF00211020FFF791FF2EE014
:100D4000BD48844208D101212020FFF789FF0021FE
:100D50002020FFF785FF22E0B848844208D1012116
:100D60004020FFF77DFF00214020FFF779FF16E0CC
:100D7000B348844208D101218020FFF771FF002190
:100D80008020FFF76DFF0AE0AE48844207D10121C1
:100D90008015FFF765FF0021A015FFF761FF10BD6B
:100DA00010B501210846FFF75BFF00210120FFF786
:100DB00057FF10BD2DE9F041024600250026002016
:100DC00000230024002791F803C00CF00F0591F8D0
:100DD00003C00CF0100CBCF1000F03D091F802C05E
:100DE0004CEA050591F800C0BCF1000F31D0146841
:100DF00000202BE04FF0010C0CFA00F3B1F800C01A
:100E00000CEA03069E4220D183004FF00F0C0CFA2F
:100E100003F7BC4305FA03FC4CEA040491F803C051
:100E2000BCF1280F06D14FF0010C0CFA00FCC2F8FF
:100E300014C00AE091F803C0BCF1480F05D14FF08F
:100E4000010C0CFA00FCC2F810C0401C0828D1D3D9
:100E50001460B1F800C0BCF1FF0F34DD546800200D
:100E60002EE000F1080C4FF0010808FA0CF3B1F87D
:100E700000C00CEA03069E4221D183004FF00F0C04
:100E80000CFA03F7BC4305FA03FC4CEA040491F89E
:100E900003C0BCF1280F05D100F1080C08FA0CF8CA
:100EA000C2F8148091F803C0BCF1480F07D100F1DB
:100EB000080C4FF0010808FA0CF8C2F81080401C2A
:100EC0000828CED35460BDE8F0814FF6FF71018051
:100ED000022181700421C17070470246002093688E
:100EE0000B400BB1012000E00020704701468868EC
:100EF00080B2704702460020D3680B400BB101203E
:100F000000E0002070470146C86880B27047016168
:100F10007047416170470AB1016100E0416170476B
:100F2000C16070474FF480320A43826181618261FF
:100F300082698269704702460020434B18684FF669
:100F40008073184040EA021008433F4B1860704716
:100F50003E49C8617047F0B50A46002300240021CD
:100F6000002500F00046B6F1004F02D1364EF1697F
:100F700001E0354E7168C0F3034583B200F44016BA
:100F8000B6F5401F08D121F070612F4E766826F02B
:100F900070662D4F7E6012E000F48016B6F5801F5B
:100FA00006D1032606FA05F4A14341F0706106E07C
:100FB000460D360103FA06F6B14341F0706122B1E5
:100FC000460D360103FA06F6314300F00046B6F14D
:100FD000004F02D11C4EF16101E01B4E7160F0BD6B
:100FE00030B500228B071C0F0F2303FA04F2164BB7
:100FF00008338C1053F824309343134C08348D106D
:1010000044F8253023468C1053F824308C07240FE5
:1010100000FA04F423430C4C08348D1044F82530B6
:1010200030BD0A49DC31086070470000000801400B
:10103000000C014000100140001401400018014064
:10104000001C01400020014000000140000020423F
:101050000CB50020019000906C48006840F480308E
:101060006A49086000BF6948006800F400300090D9
:101070000198401C0190009818B90198B0F5A06F34
:10108000F1D16248006800F4003010B101200090F6
:1010900001E0002000900098012843D15C480068DE
:1010A00040F010005A4908600846006820F003002C
:1010B00008600846006840F0020008605348406835
:1010C000524948600846406848600846406840F415
:1010D000806048600846406820F47C1048600846FC
:1010E000406840F4E81048600846006840F08070AE
:1010F000086000BF4548006800F000700028F9D083
:101100004248406820F00300404948600846406873
:1011100040F00200486000BF3C48406800F00C000E
:101120000828F9D10CBD10B5FFF792FF10BD10B51E
:101130003648006840F001003449086008464068BD
:10114000344908403149486008460068324908403F
:101150002E4908600846006820F480200860084690
:10116000406820F4FE0048604FF41F008860FFF7DD
:10117000DAFF4FF000602949086010BD10B500216A
:1011800000200022214B5B6803F00C0121B10429EF
:1011900006D0082928D107E0214B224C236027E004
:1011A0001F4B204C236023E0184B5B6803F4701046
:1011B000164B5B6803F48032022303EB904022B9A4
:1011C000194B4343174C23600DE0104B5B6803F44D
:1011D000003323B1144B4343124C236003E0104B04
:1011E0004343104C236003E00D4B0E4C236000BFC3
:1011F00000BF064B5B68C3F303130C4CE15C094B67
:101200001B68CB40074C236010BD0000001002405B
:10121000002002400000FFF8FFFFF6FE08ED00E0AE
:1012200000127A00C805002000093D00CC0500200E
:10123000064C074D06E0E06840F0010394E8070023
:1012400098471034AC42F6D3FEF776FFC816000874
:10125000E816000870B58C1810F8015B15F007034C
:1012600001D110F8013B2A1106D110F8012B03E03F
:1012700010F8016B01F8016B5B1EF9D12B0705D447
:101280000023521E0DD401F8013BFAE710F8013B90
:10129000CB1A921C03E013F8015B01F8015B521EAC
:1012A000F9D5A142D8D3002070BD02E008C8121FB2
:1012B00008C1002AFAD170477047002001E001C13F
:1012C000121F002AFBD17047004040404040404080
:1012D000C04040404040404040400000000000000E
:1012E00000000000000000000000000000000000FE
:1012F00000000000000000000000000000000000EE
:1013000000000000000000000000000000000000DD
:1013100000000000000000000000000000000000CD
:1013200000000000000000000000000000000000BD
:1013300000000000000000000000000000000000AD
:10134000000000000000000000000000000000009D
:10135000FF0000000000000000000000000000008E
:10136000000000000000000000000000000000007D
:10137000000000000000000000000000000000006D
:10138000000000000000000000000000000000005D
:10139000000000000000000000000000000000004D
:1013A000000000000000000000000000000000003D
:1013B000000000000000000000000000000000002D
:1013C000000000000000000000000000040404040D
:1013D000FF0000000000000000000000000000000E
:1013E00000000000000000000000000000000000FD
:1013F00000000000000000000000000000000000ED
:1014000000000000000000000000000000000000DC
:1014100000000000000000000000000000000000CC
:1014200000000000000000000000000000000000BC
:1014300000000000000000000000000000000000AC
:10144000000000000000000000000000808080809C
:10145000FF0000000000000000000000000000008D
:10146000000000000000000000000000000000007C
:10147000000000000000000000000000000000006C
:10148000000000000000000000000000000000005C
:10149000000000000000000000000000000000004C
:1014A000000000000000000000000000000000003C
:1014B000000000000000000000000000000000002C
:1014C000000000000000000000000000000000001C
:1014D000FF0000000000000000000000000000000D
:1014E00000000000000000000000000000000000FC
:1014F00000000000000000000000000000000000EC
:1015000000000000000000000000000000000000DB
:1015100000000000000000000000000000000000CB
:1015200000000000000000000000000000000000BB
:1015300000000000000000000000000000000000AB
:10154000000000000000000000000000101010105B
:10155000FF0000000000000000000000000000008C
:10156000000000000000000000000000000000007B
:10157000000000000000000000000000000000006B
:10158000000000000000000000000000000000005B
:10159000000000000000000000000000000000004B
:1015A000000000000000000000000000000000003B
:1015B000000000000000000000000000000000002B
:1015C000000000000000000000000000000000001B
:1015D000FF0000000000000000000000000000000C
:1015E00000000000000000000000000000000000FB
:1015F00000000000000000000000000000000000EB
:1016000000000000000000000000000000000000DA
:1016100000000000000000000000000000000000CA
:1016200000000000000000000000000000000000BA
:1016300000000000000000000000000000000000AA
:10164000000000000000000000020202020202028C
:101650000302020202020202020200000000000075
:10166000000000000000000000000000000000007A
:10167000000000000000000000000000000000006A
:10168000000000000000000000000000000000005A
:10169000000000000000000000000000000000004A
:1016A000000000000000000000000000000000003A
:1016B000000000000000000000000000000000002A
:1016C0000000000000000000E816000800000020F4
:1016D000DC0500005412000860190008DC05002039
:1016E00004040000BA120008917A800101162AFF52
:1016F00001080C130707070F0F1FFFFEFEF8E0207D
:10170000000C10E0E0E0F0F0F8FF7F3F1F077A01E7
:10171000010115897F091485395F6BFFC701F95FE6
:1017200049206AC3010210C0DA0301091480011ABA
:101730004960091E207AC001092980E9FBE9894A2C
:1017400007014962590D0931A20914F80124495AC7
:101750002CFFFCF0D65DC0E0F8FE11B92011D80CCA
:1017600001071F7F7F7E7F7F1F07018C0910B289D1
:10177000C5377088F840E01827300C031E213F1051
:1017800008F0F81808187870280B0F1F3830303E12
:101790001EF8F88801112C3F3F3101211808F8F894
:1017A000808080F8F8111E0101013F3F10612C3F3D
:1017B0003F30011508F8F8C01CE0F878641C3F3E83
:1017C0003FEF39501BF8E050263030381F0F5C6077
:1017D00060F0341A3F3F211C80E0701010110407A4
:1017E0000705043F3F04E0F0F8080898F8F01E01F0
:1017F000233B3F0F4091195D71500980C0C04040AC
:10180000C0C08046F0FEFF0F01260107FFFEF06515
:101810001FFFFFE03DC0FFFF1F1938090307060443
:10182000040607032779439119C8D501FFFFFFA9D3
:10183000102A043D2A07446A043D1A4001198139DF
:1018400082641E1F194DC1FF7F3E1F1E6030180CA1
:10185000066F2AE08A193A59013B0707823A80400D
:10186000693F111C0F0F0F134780C0E17F3F1E3AE5
:10187000E03619963D03FFFE78BF2A037BAC0406D1
:1018800003C129C269C31E80E0703C0EB239B3287F
:1018900009101C1E1311101010101907611C0808E4
:1018A00008671A0F0741193A690141380BF8FFC759
:1018B0006020202060E0C0915CE0E161573CFFFFC8
:1018C0007E80397FA980197C29C2492F3DFCFE8F7B
:1018D000810F34C383034D3FFFFFC3284A014019E2
:1018E000412A07427940997F29802B0F0F187E806B
:1018F000E0781E07E02CE0FCFF4C91CC070707FBCB
:1019000029704980111D1E3F7FF1BB1F8080E17F40
:101910003F1ECE1FFCFE07030101753D0FFEFCF8C4
:101920007F49C179802B80803F59BF116BFCFF6BD1
:101930002C83FFFE303C818387AF3683F3FF7F0F1C
:101940002C0303070F1955413A5AD22C0203040401
:101950004009060708090204060884A24A04691B14
:0400000508000131BD
:00000001FF
